{
  "address": "0xA6391666D57833faE6fEf317d9035f9B6fC0d4e9",
  "abi": [
    {
      "inputs": [
        {
          "internalType": "address",
          "name": "exampleExternalContractAddress",
          "type": "address"
        }
      ],
      "stateMutability": "nonpayable",
      "type": "constructor"
    },
    {
      "anonymous": false,
      "inputs": [
        {
          "indexed": false,
          "internalType": "address",
          "name": "",
          "type": "address"
        },
        {
          "indexed": false,
          "internalType": "uint256",
          "name": "",
          "type": "uint256"
        }
      ],
      "name": "Stake",
      "type": "event"
    },
    {
      "inputs": [
        {
          "internalType": "address",
          "name": "",
          "type": "address"
        }
      ],
      "name": "balances",
      "outputs": [
        {
          "internalType": "uint256",
          "name": "",
          "type": "uint256"
        }
      ],
      "stateMutability": "view",
      "type": "function"
    },
    {
      "inputs": [],
      "name": "deadline",
      "outputs": [
        {
          "internalType": "uint256",
          "name": "",
          "type": "uint256"
        }
      ],
      "stateMutability": "view",
      "type": "function"
    },
    {
      "inputs": [],
      "name": "exampleExternalContract",
      "outputs": [
        {
          "internalType": "contract ExampleExternalContract",
          "name": "",
          "type": "address"
        }
      ],
      "stateMutability": "view",
      "type": "function"
    },
    {
      "inputs": [],
      "name": "execute",
      "outputs": [],
      "stateMutability": "nonpayable",
      "type": "function"
    },
    {
      "inputs": [],
      "name": "stake",
      "outputs": [],
      "stateMutability": "payable",
      "type": "function"
    },
    {
      "inputs": [],
      "name": "threshold",
      "outputs": [
        {
          "internalType": "uint256",
          "name": "",
          "type": "uint256"
        }
      ],
      "stateMutability": "view",
      "type": "function"
    },
    {
      "inputs": [],
      "name": "timeLeft",
      "outputs": [
        {
          "internalType": "uint256",
          "name": "",
          "type": "uint256"
        }
      ],
      "stateMutability": "view",
      "type": "function"
    },
    {
      "inputs": [],
      "name": "withdraw",
      "outputs": [],
      "stateMutability": "nonpayable",
      "type": "function"
    },
    {
      "stateMutability": "payable",
      "type": "receive"
    }
  ],
  "transactionHash": "0xd4fe7d800785e0f3f006422841922a2ae6f78b5524a87ddffb66afc562222256",
  "args": [
    "0x25D26730Bae55f1770f0aa45438759baD97FAb27"
  ],
  "numDeployments": 1,
  "solcInputHash": "1f08925be5d22acaefcd2b0f7d699118",
  "bytecode": "0x608060405261000f42601e61006c565b6001556002805460ff1916905534801561002857600080fd5b5060405161059638038061059683398101604081905261004791610093565b600080546001600160a01b0319166001600160a01b03929092169190911790556100c3565b8082018082111561008d57634e487b7160e01b600052601160045260246000fd5b92915050565b6000602082840312156100a557600080fd5b81516001600160a01b03811681146100bc57600080fd5b9392505050565b6104c4806100d26000396000f3fe60806040526004361061007f5760003560e01c80633ccfd60b1161004e5780633ccfd60b1461010657806342cde4e81461011b57806361461954146101375780639f75f2271461014c57600080fd5b80631300a6d11461009357806327e235e3146100bb57806329dcb0cf146100e85780633a4b66f1146100fe57600080fd5b3661008e5761008c610184565b005b600080fd5b34801561009f57600080fd5b506100a86101e2565b6040519081526020015b60405180910390f35b3480156100c757600080fd5b506100a86100d636600461041c565b60036020526000908152604090205481565b3480156100f457600080fd5b506100a860015481565b61008c610184565b34801561011257600080fd5b5061008c610206565b34801561012757600080fd5b506100a8670de0b6b3a764000081565b34801561014357600080fd5b5061008c61034d565b34801561015857600080fd5b5060005461016c906001600160a01b031681565b6040516001600160a01b0390911681526020016100b2565b33600090815260036020526040812080543492906101a3908490610462565b9091555050604080513381523460208201527febedb8b3c678666e7f36970bc8f57abf6d8fa2e828c0da91ea5b75bf68ed101a910160405180910390a1565b600060015442106101f35750600090565b42600154610201919061047b565b905090565b60025460ff1661025d5760405162461bcd60e51b815260206004820152601960248201527f7468726573686f6c642068617320616c7265616479206d65740000000000000060448201526064015b60405180910390fd5b6001544210156102af5760405162461bcd60e51b815260206004820152601860248201527f446561646c696e65206e6f7420726561636865642079657400000000000000006044820152606401610254565b336000818152600360205260408082205490519192918381818185875af1925050503d80600081146102fd576040519150601f19603f3d011682016040523d82523d6000602084013e610302565b606091505b505090508061034a5760405162461bcd60e51b81526020600482015260146024820152733330b4b632b2103a379039b2b7321032ba3432b960611b6044820152606401610254565b50565b6001544210156103955760405162461bcd60e51b8152602060048201526013602482015272191958591b1a5b99481a5cc81b9bdd081b595d606a1b6044820152606401610254565b670de0b6b3a7640000471061040d5760008054906101000a90046001600160a01b03166001600160a01b031663522e1177476040518263ffffffff1660e01b81526004016000604051808303818588803b1580156103f257600080fd5b505af1158015610406573d6000803e3d6000fd5b5050505050565b6002805460ff19166001179055565b60006020828403121561042e57600080fd5b81356001600160a01b038116811461044557600080fd5b9392505050565b634e487b7160e01b600052601160045260246000fd5b808201808211156104755761047561044c565b92915050565b818103818111156104755761047561044c56fea2646970667358221220f0ce19055556bad4f748b130bbcd1b91b5f608c78f85765bacbb73cd55b0038f64736f6c63430008140033",
  "devdoc": {
    "kind": "dev",
    "methods": {},
    "version": 1
  },
  "userdoc": {
    "kind": "user",
    "methods": {},
    "version": 1
  },
  "storageLayout": {
    "storage": [
      {
        "astId": 19,
        "contract": "contracts/Staker.sol:Staker",
        "label": "exampleExternalContract",
        "offset": 0,
        "slot": "0",
        "type": "t_contract(ExampleExternalContract)12"
      },
      {
        "astId": 25,
        "contract": "contracts/Staker.sol:Staker",
        "label": "deadline",
        "offset": 0,
        "slot": "1",
        "type": "t_uint256"
      },
      {
        "astId": 31,
        "contract": "contracts/Staker.sol:Staker",
        "label": "openForWithdraw",
        "offset": 0,
        "slot": "2",
        "type": "t_bool"
      },
      {
        "astId": 35,
        "contract": "contracts/Staker.sol:Staker",
        "label": "balances",
        "offset": 0,
        "slot": "3",
        "type": "t_mapping(t_address,t_uint256)"
      }
    ],
    "types": {
      "t_address": {
        "encoding": "inplace",
        "label": "address",
        "numberOfBytes": "20"
      },
      "t_bool": {
        "encoding": "inplace",
        "label": "bool",
        "numberOfBytes": "1"
      },
      "t_contract(ExampleExternalContract)12": {
        "encoding": "inplace",
        "label": "contract ExampleExternalContract",
        "numberOfBytes": "20"
      },
      "t_mapping(t_address,t_uint256)": {
        "encoding": "mapping",
        "key": "t_address",
        "label": "mapping(address => uint256)",
        "numberOfBytes": "32",
        "value": "t_uint256"
      },
      "t_uint256": {
        "encoding": "inplace",
        "label": "uint256",
        "numberOfBytes": "32"
      }
    }
  }
}